:020000040800F2
:1000000080060020B5010008BD010008BF010008FE
:10001000C1010008C3010008C5010008000000007C
:10002000000000000000000000000000C701000800
:10003000C901000800000000CB010008CD01000844
:10004000CF010008CF010008CF010008CF01000850
:10005000CF010008CF010008CF010008CF01000840
:10006000CF010008CF010008CF010008CF01000830
:10007000CF010008CF010008CF010008CF01000820
:10008000CF010008CF010008CF010008CF01000810
:10009000CF010008CF010008CF010008CF01000800
:1000A000CF010008CF010008CF010008CF010008F0
:1000B000CF010008CF010008CF010008CF010008E0
:1000C000CF010008CF010008CF010008CF010008D0
:1000D000CF010008CF010008CF010008CF010008C0
:1000E000CF010008CF010008CF01000800F002F89E
:1000F00000F050F814A696E8000CB244B344DA4578
:1001000001D100F047F8BAE80F000FA696E83000DA
:10011000A5EB040504EB0607AAEB0704A7F101070A
:100120004FEA15154FEA3414A4F10104AC4201D38F
:1001300000F030F813F0010F18BFFB1A43F0010371
:1001400000F001F8DBE7184724180000441800000D
:10015000103A24BF78C878C1FAD8520724BF30C8F3
:1001600030C144BF04680C60704700007047000055
:100170000023002400250026103A28BF78C1FBD8B0
:10018000520728BF30C148BF0B6070471FB51FBD65
:1001900010B510BD00F031F81146FFF7F7FF00F081
:1001A00037FE00F04FF803B4FFF7F2FF03BC00F096
:1001B00057F800000948804709480047FEE7FEE776
:1001C000FEE7FEE7FEE7FEE7FEE7FEE7FEE7FEE707
:1001D00004480549054A064B70470000050D000814
:1001E000ED00000880000020800600208002002032
:1001F00080020020704770477047754600F02CF869
:10020000AE4605006946534620F00700854618B003
:1002100020B5FFF7DDFFBDE820404FF000064FF0AE
:1002200000074FF000084FF0000BAC46ACE8C009E7
:10023000ACE8C009ACE8C009ACE8C00921F007018E
:100240008D46704710B50446AFF300802046BDE8E8
:100250001040FFF7A8BF00000048704708000020CA
:1002600001491820ABBEFEE72600020070470000DF
:100270002DE9F04381B040F610470646C4F201076D
:10028000802038604020914688463860002000BFBA
:10029000002100BF092901F1010100BFFAD301309B
:1002A0000528F5D180207860002000BF002100BF24
:1002B000092901F1010100BFFAD301300528F5D168
:1002C00040207860002000BF002100BF092901F113
:1002D000010100BFFAD301300528F5D1A02000F0BC
:1002E00085F9300A00F082F9F0B200F07FF9802041
:1002F0003860402038600020002100BF092901F14A
:10030000010100BFFAD301300528F5D180207860C3
:10031000002000BF002100BF092901F1010100BF39
:10032000FAD301300528F5D140207860002000BFC5
:10033000002100BF092901F1010100BFFAD30130FA
:100340000528F5D1A12000F051F9B9F1000F00F016
:10035000AA80A9F1010C00214FF0800E402307E094
:10036000C7F800E008F801600131494500F09B80C2
:100370008C454FF000064FF00005C7F800E049D16A
:1003800000243B60002000BF092800F1010000BFED
:10039000FAD30134052CF5D157F8084C00207B60C6
:1003A000002200BF092A02F1010200BFFAD3013086
:1003B0000228F5D1C4F3C01040EA4606072D05F126
:1003C0000105DDD30020C7F800E000BF002200BF18
:1003D000092A02F1010200BFFAD301300228F5D147
:1003E00000203B60002200BF092A02F1010200BF89
:1003F000FAD301300528F5D100207B60002200BF30
:10040000092A02F1010200BFFAD301300228F5D116
:10041000A6E700BF00203B60002200BF092A02F1CE
:10042000010200BFFAD301300528F5D157F8084C76
:1004300000207B60002200BF092A02F1010200BFF8
:10044000FAD301300228F5D1C4F3C01040EA4606C1
:10045000072D05F10105DDD30020C7F804E000BF3A
:10046000002200BF092A02F1010200BFFAD30130C5
:100470000228F5D100203B60002200BF092A02F1CA
:10048000010200BFFAD301300528F5D100207B60BE
:10049000002200BF092A02F1010200BFFAD3013095
:1004A0000228F5D15CE78020786040207860002049
:1004B000002100BF092901F1010100BFFAD3013079
:1004C0000528F5D140203860002000BF002100BF82
:1004D000092901F1010100BFFAD301300528F5D146
:1004E00080203860002000BF002100BF092901F1F1
:1004F000010100BFFAD301300528F5D101B0BDE8F4
:10050000F0830000F0B581B040F610470646C4F213
:10051000010780203860402014460D4638600020D6
:10052000002100BF092901F1010100BFFAD3013008
:100530000528F5D180207860002000BF002100BF91
:10054000092901F1010100BFFAD301300528F5D1D5
:1005500040207860002000BF002100BF092901F180
:10056000010100BFFAD301300528F5D1A02000F029
:100570003DF8300A00F03AF8F0B200F037F83CB13C
:10058000013D00BF15F8010F00F030F8013CF9D132
:100590008020786040207860002000BF002100BFEC
:1005A000092901F1010100BFFAD301300528F5D175
:1005B00040203860002000BF002100BF092901F160
:1005C000010100BFFAD301300528F5D18020386041
:1005D000002000BF002100BF092901F1010100BF77
:1005E000FAD301300528F5D101B0F0BD10B540F6C1
:1005F00010410022C4F201014FF0800C4FF0400E78
:1006000043B2B3F1FF3F4FF00003CCBFC1F804C0C9
:10061000C1F800C0002400BF092C04F1010400BF90
:10062000FAD30133022BF5D10023C1F800E000BF5B
:10063000002400BF092C04F1010400BFFAD30133E8
:10064000052BF5D10023C1F804E000BF002400BF52
:10065000092C04F1010400BFFAD30133022BF5D1B8
:100660004000072A02F10102CAD38020086000205E
:10067000002200BF092A02F1010200BFFAD30130B3
:100680000228F5D140200860002000BF002200BFF2
:10069000092A02F1010200BFFAD301300528F5D181
:1006A00051F8080C40204860002000BF002100BF26
:1006B000092901F1010100BFFAD30130022808BF66
:1006C00010BDF3E740F61001C4F2010101220A60F7
:1006D0000222C3064A604FF0080254BF4A600A6013
:1006E00082064FF0100254BF4A600A6042064FF083
:1006F000200254BF4A600A6042B2B2F1FF3F4FF09D
:100700004002CCBF4A600A6004220A60002200BF97
:10071000092A02F1010200BFFAD304224A60002232
:10072000002300BF092B03F1010300BFFAD30132FC
:10073000642AF5D1C2074FF008020CBF4A600A6074
:1007400082074FF0100254BF4A600A6042074FF020
:10075000200254BF4A600A6000074FF0400054BFB7
:100760004860086004200860002000BF092800F1EC
:10077000010000BFFAD3042048600020002100BF20
:10078000092901F1010100BFFAD30130642808BF33
:100790007047F3E7002000BF4FF4E151013900BF7B
:1007A000FCD101303228F7D140F61400C4F2010028
:1007B0000121016002210160082140F8041C102180
:1007C00040F8041C2021016040210160042140F810
:1007D000041C0021092901F1010100BFFAD3042101
:1007E00001600021002200BF092A02F1010200BFBE
:1007F000FAD301316429F5D1082140F8041C1021F5
:1008000040F8041C2021016040210160042140F8CF
:10081000041C0021092901F1010100BFFAD30421C0
:1008200001600021002200BF092A02F1010200BF7D
:10083000FAD301316429F5D101210160022101605F
:10084000082140F8041C102140F8041C20210160FC
:1008500040210160042140F8041C0021092901F114
:10086000010100BFFAD3042101600021002200BF72
:10087000092A02F1010200BFFAD301316429F5D13E
:1008800008210160102140F8041C20210160402152
:100890000160042140F8041C002100BF092901F176
:1008A000010100BFFAD3042101600021002200BF32
:1008B000092A02F1010200BFFAD301316429F5D1FE
:1008C000012101600221016008210160102140F82E
:1008D000041C2021016040210160042140F8041C17
:1008E000002100BF092901F1010100BFFAD3042151
:1008F00001600021002200BF092A02F1010200BFAD
:10090000FAD301316429F5D1082101601021016079
:1009100020210160402140F8041C042140F8041CFF
:10092000002100BF092901F1010100BFFAD3042110
:1009300001600021002200BF092A02F1010200BF6C
:10094000FAD301316429F5D101210160022101604E
:100950000821016010210160202101604021016017
:10096000042140F8041C0021092901F1010100BF04
:10097000FAD3042101600021002200BF092A02F1FC
:10098000010200BFFAD301316429F5D108210160C9
:1009900010210160202140F8041C402140F8041C73
:1009A000042140F8041C0021092901F1010100BFC4
:1009B000FAD3042101600021002200BF092A02F1BC
:1009C000010200BFFAD301316429F5D10121016090
:1009D00002210160082101601021016020210160D5
:1009E00040210160042140F8041C0021092901F183
:1009F000010100BFFAD3042101600021002200BFE1
:100A0000092A02F1010200BFFAD301316429F5D1AC
:100A100008210160102140F8041C202140F8041C2A
:100A200040210160042140F8041C0021092901F142
:100A3000010100BFFAD3042101600021002200BFA0
:100A4000092A02F1010200BFFAD301316429F5D16C
:100A50000121016002210160082101601021016073
:100A60002021016040210160042140F8041C002184
:100A7000092901F1010100BFFAD30421016000211D
:100A8000002200BF092A02F1010200BFFAD301319E
:100A90006429F5D1082140F8041C102101602021AF
:100AA000016040210160042140F8041C002100BFC6
:100AB000092901F1010100BFFAD3042101600020DE
:100AC0004FF4E151013900BFFCD101300528F7D1C5
:100AD000002000BF4FF4E151013900BFFCD10130CB
:100AE000052808BF7047F5E7B0B50446092800F2AD
:100AF0008C8040F61400C4F20100012140F8041C6F
:100B000002210160082140F8041C102140F8041C57
:100B10002021016040210160042140F8041C0021D3
:100B2000092901F1010100BFFAD30421016000216C
:100B3000002200BF092A02F1010200BFFAD30131ED
:100B40006429F5D108210160102101602021016094
:100B500040210160042140F8041C0021092901F111
:100B6000010100BFFAD3042101600021002200BF6F
:100B7000092A02F1010200BFFAD301316429F5D13B
:100B8000012140F8041C02210160082140F8041CE6
:100B9000102140F8041C2021016040210160042143
:100BA00040F8041C002100BF092901F1010100BF28
:100BB000FAD3042101600021002200BF092A02F1BA
:100BC000010200BFFAD301316429F5D10821016087
:100BD000102101602021016040210160042140F8C2
:100BE000041C0021092901F1010100BFFAD30421ED
:100BF00001600020002100BF092901F1010100BFAF
:100C0000FAD301306428F5D175E04CF6CD45632C5C
:100C1000CCF6CC454AD840F61400C4F201000121BC
:100C200040F8041C02210160082140F8041C102136
:100C300040F8041C2021016040210160042140F89B
:100C4000041C0021092901F1010100BFFAD304218C
:100C500001600021002200BF092A02F1010200BF49
:100C6000FAD301316429F5D1082101601021016016
:100C70002021016040210160042140F8041C002172
:100C8000092901F1010100BFFAD30421016000200C
:100C9000002100BF092901F1010100BFFAD3013091
:100CA0006428F5D1A4FB0501C80818E048F21F50DC
:100CB000C5F2EB10A4FB0001302000EB5110C0B2D4
:100CC000FFF700FDA4FB0501C80849F69A11C1F61B
:100CD0009911A0FB011202EB8201A0EB410040F050
:100CE0003000C0B2FFF7EEFCA4FB0501C80800EB22
:100CF0008000A4EB400444F03000C0B2BDE8B04036
:100D0000FFF7E0BC82B041F20400C4F2020050F8E8
:100D1000041C002241F0010140F8041C0168CFF6D8
:100D2000FF021140016050F8041C4FF6FF72CFF62D
:100D3000F662114040F8041C50F8041C21F4802194
:100D400040F8041C016821F4FE0101604FF41F010A
:100D5000416000210191009150F8041C41F4803160
:100D600040F8041C50F8041C01F400310091019972
:100D700001310191009919B90199B1F5A06FF1D133
:100D800050F8041CC1F3404100910099012936D16B
:100D900042F20001C4F202010A6842F010020A6045
:100DA0000A6822F007020A600A6842F002020A603A
:100DB0000168016001680160016841F480610160BF
:100DC000016821F47C110160016841F4E8110160BF
:100DD00050F8041C41F0807140F8041C50F8041CC9
:100DE0008901FBD5016821F003010160016841F030
:100DF00002010160016801F00C010829FAD14EF6E8
:100E00000850CEF200004FF00061016002B0704760
:100E100086B041F21800C4F20200016840F61407DF
:100E200041F00C01016040F2000041F20021C2F2E9
:100E30000000C0F27A01C4F20107016000200F2116
:100E4000022200BF57F8143C01FA00F6B34347F8FA
:100E5000143C57F8143C02FA00F6043033431C28C3
:100E600047F8143CEED107201C210F22062314E082
:100E7000A1F1200657F8105C02FA06F4A54347F8E2
:100E8000105C57F8105C03FA06F62E4347F8106C16
:100E900001300B2801F1040110D00728E8D857F8D9
:100EA000146C02FA01F5AE4347F8146C57F8146C51
:100EB00003FA01F52E4347F8146CE9E757F8100CD4
:100EC00020F4704047F8100C57F8100C40F4004024
:100ED00047F8100C57F8100C20F4702047F8100C4D
:100EE00057F8100C40F4002047F8100C57F8100C7D
:100EF00020F0704047F8100C57F8100C40F00040FC
:100F000047F8100C57F8080C40F4184047F8080C44
:100F1000FFF740FC80204FF4807147F8040C47F83D
:100F2000041C4FF4007147F8041C4FF4806147F82B
:100F3000041CD7F8EC1321F07061C7F8EC13D7F854
:100F4000EC1341F0C061C7F8EC13D7F8EC1321F0B3
:100F50007041C7F8EC13D7F8EC1341F0C041C7F863
:100F6000EC134021C7F8FC13C7F8FC034FF4E15021
:100F7000013800BFFCD10120386002203860082011
:100F8000386010203860202038604020386004200D
:100F900047F8040C002000BF092800F1010000BF41
:100FA000FAD3042038600020002100BF092901F194
:100FB000010100BFFAD301306428F5D1082047F8B9
:100FC000040C102038602020386040203860042055
:100FD00047F8040C002000BF092800F1010000BF01
:100FE000FAD30420386000204FF4E151013900BFEA
:100FF000FCD101300528F7D1002000BF4FF4E151AA
:10100000013900BFFCD101300528F7D1542001245B
:101010000FF6C005C0B2FFF755FB285D0134102C58
:10102000F8D100204FF4E151013900BFFCD101306B
:101030006428F7D10FF6AC0100200A220024FFF744
:1010400061FA00BF4FF4E150013800BFFCD1013418
:101050000A2CF7D102A900200A220024FFF708F980
:1010600001208DF812403860022038600820386076
:10107000102038602020386040203860042047F875
:10108000040C00BF092C04F1010400BFFAD30420B2
:1010900038600020002100BF092901F1010100BFD3
:1010A000FAD301306428F5D1082047F8040C102049
:1010B00038602020386040203860042047F8040C55
:1010C000002000BF092800F1010000BFFAD304206E
:1010D000386000204FF4E151013900BFFCD10130EC
:1010E0000528F7D1002000BF4FF4E151013900BFBE
:1010F000FCD101300528F7D19DF80800452813D10F
:101100009DF8090045280FD19DF80A0050280BD101
:10111000452001240FF2E875C0B2FFF7D3FA285D2D
:1011200001340B2CF8D10AE0452001240FF2C075E0
:10113000C0B2FFF7C7FA285D01340E2CF8D10020A9
:101140004FF4E151013900BFFCD10130B0F5FA7F15
:10115000F6D1012038600220386008203860102065
:1011600038602020386040203860042047F8040CA4
:10117000002000BF092800F1010000BFFAD30420BD
:1011800038600020002100BF092901F1010100BFE2
:10119000FAD301306428F5D1082047F8040C102058
:1011A00038602020386040203860042047F8040C64
:1011B000002000BF092800F1010000BFFAD304207D
:1011C000386000204FF4E151013900BFFCD10130FB
:1011D0000528F7D1002000BF4FF4E151013900BFCD
:1011E000FCD101300528F7D141F6471641200124F2
:1011F000C0F60006C0B2FFF765FA305D01340E2C70
:10120000F8D10120386002203860082038601020B2
:101210003860202047F8040C402047F8040C0420D4
:1012200047F8040C002000BF092800F1010000BFAE
:10123000FAD3042038600020002100BF092901F101
:10124000010100BFFAD301306428F5D108203860CD
:10125000102038602020386040203860042047F893
:10126000040C0020092800F1010000BFFAD304207B
:1012700038600020002100BF092901F1010100BFF1
:10128000FAD301306428F5D141F6551554200124D4
:10129000C0F60005C0B2FFF715FA285D01340D2C29
:1012A000F8D141F634194FF0100C4FF0800E4FF08A
:1012B0000108C0F600091020019000BF00210020A5
:1012C0004FF4807247F804EC47F8042C4FF4007296
:1012D00047F8042C4FF4806247F8042C41F643127F
:1012E000C0F60002525C08FA02F292B23A600022A2
:1012F000002300BF092B03F1010300BFFAD3013221
:101300000A2AF5D1B3460023002208E0012B03F19D
:1013100001034FF0000288BF0122032B22D019F8ED
:10132000036057F80C5C08FA06F6B6B22E42EDD10F
:10133000002500BF4FF4E154013C00BFFCD1013552
:10134000142DF7D157F80C5C3542DFD157F80C0C4F
:101350003042FBD041F6371401EB4100C0F60004E7
:101360002044C05CD2075E4603D001310429A7D1D6
:101370000020002800F0A38240F27803C2F20003AC
:10138000196840F20402C2F200021070481C186092
:101390000220C7F800803860082038602020C7F895
:1013A00000C03860402038600422002047F8042C38
:1013B000092800F1010000BFFAD300200FF24C54BD
:1013C0000FF250563A6000BF002100BF092901F119
:1013D000010100BFFAD301306428F5D1082047F895
:1013E000040C2020C7F800C038604020386000207E
:1013F00047F8042C092800F1010000BFFAD30020AF
:101400003A6000BF4FF4E151013900BFFCD1013017
:101410000528F7D1002000BF4FF4E151013900BF8A
:10142000FCD101300528F7D154200125C0B2FFF7C7
:1014300049F9605D0135082DF8D140F20400C2F28F
:1014400000000078FFF73EF90220C7F800803860FE
:1014500008203860102220203A6047F8040C402011
:1014600047F8040C0423002047F8043C092800F145
:10147000010000BFFAD300203B6000BF002100BF85
:10148000092901F1010100BFFAD301306428F5D127
:101490000820386020203A60386040203860002002
:1014A00047F8043C092800F1010000BFFAD30020EE
:1014B0003B6000BF002100BF092901F1010100BF0D
:1014C000FAD301306428F5D153200125C0B2FFF7CB
:1014D000F9F8705D01350D2DF8D1DDF804A0372540
:1014E0001FFA8AF6310A05EB1630320BC6F30324D5
:1014F000A02938BF02F13000FFF7E4F804F137000B
:101500000A2C38BF04F13000FFF7DCF85FFA8AF1EB
:1015100005EB11100A090AF00F04A02938BF02F1E7
:101520003000FFF7CFF804F137000A2C38BF04F180
:101530003000FFF7C7F840F2040040F27801C2F231
:101540000000C2F2000100780A6840F26801C2F2AD
:1015500000010870A1F8012030460322FEF7D2FFF7
:101560000AF1030A002000BF4FF4E151013900BF26
:10157000FCD101306428F7D11FFA8AF047F6FC71DC
:10158000884288BF4FF0100A1FFA8AF0CDF804A0F5
:10159000A0F1030A1FFA8AF002A90322FEF768FEEF
:1015A0000220C7F800803860082038601022202010
:1015B0003A603860402038600423002047F8043C3B
:1015C000092800F1010000BFFAD341F6621600209D
:1015D000C0F600063B6000BF002100BF092901F1F1
:1015E000010100BFFAD301306428F5D1082047F883
:1015F000040C20203A60386040203860002047F812
:10160000043C00BF092800F1010000BFFAD300200C
:101610003B6000BF4FF4E151013900BFFCD1013004
:101620000528F7D1002000BF4FF4E151013900BF78
:10163000FCD101300528F7D153200125B9A400BF02
:10164000C0B2FFF73FF8605D0135082DF8D19DF875
:101650000800FFF737F820200125B4A4C0B2FFF737
:1016600031F8605D0135062DF8D1BDF80900FFF7AE
:101670003BFA0220C7F8008038600820386010224A
:1016800020203A6047F8040C402047F8040C04235B
:10169000002047F8043C00BF092800F1010000BF0A
:1016A000FAD300203B6000BF002100BF092901F1EF
:1016B000010100BFFAD301306428F5D10820386059
:1016C00020203A60386040203860002047F8043C11
:1016D000092800F1010000BFFAD300203B6000BFE1
:1016E000002100BF092901F1010100BFFAD3013037
:1016F0006428F5D100214120C0B24C1C7518FEF7BA
:10170000E1FF6878082C2146F6D1CAF30721372576
:1017100005EB11100A09CAF30324A02938BF02F10E
:101720003000FEF7CFFF04F137000A2C38BF04F178
:101730003000FEF7C7FF5FFA8AF105EB11100A09C6
:101740000AF00F04A02938BF02F13000FEF7BAFFFB
:1017500004F137000A2C38BF04F13000FEF7B2FF65
:1017600041F6551400205E46C0F600041022042302
:101770004FF4E151013900BFFCD10130B0F5FA7FDF
:10178000F6D10220C7F80080386008203860202099
:101790003A60386040203860002047F8043C00BFC1
:1017A000092800F1010000BFFAD300203B6000BF10
:1017B000002100BF092901F1010100BFFAD3013066
:1017C0006428F5D1082047F8040C20203A603860DE
:1017D00040203860002047F8043C00BF092800F191
:1017E000010000BFFAD300203B6000BF4FF4E1517D
:1017F000013900BFFCD101300528F7D1002000BF1E
:101800004FF4E151013900BFFCD101300528F7D177
:1018100041200125C0B2FEF755FF705D01350E2D48
:10182000F8D10220C7F80080386008203860102204
:1018300020203A6047F8040C402047F8040C0423A9
:10184000002047F8043C00BF092800F1010000BF58
:10185000FAD300203B6000BF002100BF092901F13D
:10186000010100BFFAD301306428F5D108203860A7
:1018700020203A60386040203860002047F8043C5F
:10188000092800F1010000BFFAD300203B6000BF2F
:10189000002100BF092901F1010100BFFAD3013085
:1018A0006428F5D154200125C0B2FEF70BFF605D1E
:1018B00001350D2DF8D14FF0100C4FF0800E0020A7
:1018C0004FF4E151013900BFFCD101300A28F7D1B2
:1018D000F4E400BF54657374616E646F2045455035
:1018E000524F4D00454550524F4D204F4B21000067
:1018F000454550524F4D3A2046616C6861000000EA
:10190000454550524F4D3A204F4B00005465636C93
:10191000613A200053616C766120656D3A20307821
:101920000000000053616C766F3A200020436E7413
:101930003A0000000B0C0F3132333435363738396A
:101940002A30230708090A416775617264616E6471
:101950006F2E2E2E005465636C613A2053616C76B5
:101960006100416464723A203078000090190008E8
:10197000000000200800000050010008981900082D
:101980000800002078060000700100080000000038
:0819900000A24A04200000003F
:04000005080000ED02
:00000001FF
