:020000040800F2
:1000000000500020E1100008251000082D10000805
:10001000351000083D1000084510000800000000E1
:100020000000000000000000000000004D1000086B
:100030005910000800000000651000087110000849
:1000400029110008291100082911000829110008A8
:100050002911000829110008291100082911000898
:100060002911000829110008291100082911000888
:100070002911000829110008291100082911000878
:100080002911000829110008291100082911000868
:100090002911000829110008291100082911000858
:1000A0002911000829110008291100082911000848
:1000B0002911000829110008291100082911000838
:1000C0002911000829110008291100082911000828
:1000D0002911000829110008291100082911000818
:1000E000291100082911000829110008000000004A
:1000F0000000000000000000000000000000000000
:0C01000000000000000000005FF808F1A3
:10010C0010B5054C237833B9044B13B10448AFF345
:10011C0000800123237010BD0C00002000000000A3
:10012C007C1F000808B5034B1BB103490348AFF310
:10013C00008008BD00000000100000207C1F00089B
:10014C0080B483B000AF78600B467B807A887B6884
:10015C001A6100BF0C37BD4680BC704780B483B0B9
:10016C0000AF78600B467B807A887B685A6100BF51
:10017C000C37BD4680BC704780B483B000AF78604C
:10018C000B467B807B689A687B881340002B14BFDE
:10019C0001230023DBB218460C37BD4680BC7047E8
:1001AC0080B483B000AF0346FB71FB79012202FAE5
:1001BC0003F39BB218460C37BD4680BC704780B425
:1001CC0085B000AF78600023FB600CE00023FB726D
:1001DC0003E000BFFB7A0133FB72FB7A092BF8D9E1
:1001EC00FB680133FB60FA687B689A42EED300BF70
:1001FC0000BF1437BD4680BC704780B586B006AFD3
:10020C0000F026F9012305930023049300230393A4
:10021C000023029300230193002300930123012266
:10022C000021002000F040F90123059300230493E2
:10023C0000230393012302930023019300230093D3
:10024C00012301220021002000F02EF90123059347
:10025C0000230493012303930023029300230193AF
:10026C0000230093002300220021002000F01CF941
:10027C00012305930023049300230393002302938B
:10028C00002301930123009300230122002100206D
:10029C0000F00AF901230593002304930023039330
:1002AC0001230293012301930123009300230022D5
:1002BC000021002000F0F8F801230593002304939B
:1002CC000023039301230293012301930023009342
:1002DC00002300220021002000F0E6F800BFBD46FC
:1002EC0080BD80B584B000AF78607B68002B16D0E1
:1002FC000023FB6009E0FB687A6813441B781846FE
:10030C0000F011F8FB680133FB60FB687A6813445A
:10031C001B78002B04D0FB680F2BECDD00E000BF3A
:10032C001037BD4680BDF0B58BB006AF0346FB71F0
:10033C0007F10802FB791146184600F022F83C7AC6
:10034C007D7ABE7A97F80BC03B7B7A7BB97BF87BC6
:10035C004FF0010ECDF814E04FF0010ECDF810E087
:10036C00039002910192009363463246294620463F
:10037C0000F09AF80A2000F035FF00BF1437BD4694
:10038C00F0BD80B584B000AF03463960FB71FB79DA
:10039C00602B05D9FB797A2B02D8FB79203BFB71BA
:1003AC00FB79FB603968F86800F004F800BF10377F
:1003BC00BD4680BD80B485B000AF7860396007233E
:1003CC00FB600023BB6007E0BB683A681344002263
:1003DC001A70BB680133BB60BB68072BF4DD14E0FB
:1003EC007B68002B03F00103B8BF5B42012B04D1E7
:1003FC00FB683A68134401221A707B68DA0F1344C5
:10040C005B107B60FB68013BFB607B68002BE7D1DA
:10041C0000BF1437BD4680BC704780B586B006AFB0
:10042C0001230593002304930123039300230293D8
:10043C0000230193002300930023002200210020BD
:10044C0000F032F800F004F800BFBD4680BD00009B
:10045C0080B500AF00224021114801F066F900225E
:10046C0080210F4801F061F9002201210D4801F0B3
:10047C005CF9002202210B4801F057F900224FF4DD
:10048C008061084801F051F900224FF400610548E1
:10049C0001F04BF9022000F0A5FE00BF80BD00BFAB
:1004AC0000080140000C014090B583B000AF044639
:1004BC00084611461A462346FB710346BB710B4690
:1004CC007B7113463B7197F828301A464FF4006144
:1004DC00234801F02AF93B791A460221204801F001
:1004EC0024F97B791A4601211D4801F01EF9BB79CC
:1004FC001A4680211B4801F018F9FB791A46402155
:10050C00184801F012F9022000F06CFE00F02CF8F3
:10051C00FB6A002B1FD097F824301A460221104892
:10052C0001F003F997F820301A4601210C4801F02C
:10053C00FCF83B7F1A4680210A4801F0F6F83B7E16
:10054C001A464021074801F0F0F8022000F04AFE5C
:10055C0000F00AF800E000BF0C37BD4690BD00BFAC
:10056C00000C01400008014080B500AF01224FF49F
:10057C008061084801F0D9F8022000F033FE002217
:10058C004FF48061034801F0D0F8022000F02AFEFD
:10059C0000BF80BD000C014080B500AF0520FFF707
:1005AC00FFFD034619461048FFF7CAFD0420FFF76C
:1005BC00F7FD034619460C48FFF7C2FD0320FFF771
:1005CC00EFFD034619460848FFF7BAFD0220FFF776
:1005DC00E7FD034619460448FFF7B2FD6B20FFF711
:1005EC00A2FE00BF80BD00BF00080140B0B58CB0BA
:1005FC0000AF00F003F97B4BBB627B4B7B627B4B08
:10060C003C1D1D460FCD0FC495E80F0084E80F006C
:10061C00002387F82F30DAE00520FFF7C1FD0346F1
:10062C0019467348FFF78CFD0420FFF7B9FD03460C
:10063C0019466F48FFF784FD0320FFF7B1FD034611
:10064C0019466B48FFF77CFD0220FFF7A9FD034616
:10065C0019466748FFF774FD97F82F3030333B4449
:10066C0013F8083C1846FFF79BFD034619466048F3
:10067C00FFF774FD0A2000F0B5FD002387F82E303B
:10068C009BE097F82E30012B49D997F82E30303358
:10069C003B4413F80C3C1846FFF782FD0346194601
:1006AC005448FFF769FD0346002B40F0818014206D
:1006BC0000F098FD97F82E3030333B4413F80C3C87
:1006CC001846FFF76DFD034619464A48FFF754FDDF
:1006DC000346002B6CD102E0012000F083FD97F85B
:1006EC002E3030333B4413F80C3C1846FFF758FDC2
:1006FC00034619463F48FFF73FFD0346002BEBD05E
:10070C0097F82F203C4B1B789B001A4497F82E30FF
:10071C00920030323A4413442C3B1B785DE097F83E
:10072C002E3030333B4413F80C3C1846FFF738FDA1
:10073C00034619462E48FFF71FFD0346002B37D101
:10074C00142000F04FFD97F82E3030333B4413F853
:10075C000C3C1846FFF724FD034619462448FFF7C6
:10076C000BFD0346002B23D102E0012000F03AFDE3
:10077C0097F82E3030333B4413F80C3C1846FFF7F7
:10078C000FFD034619461A48FFF7F6FC0346002BEB
:10079C00EBD097F82F20184B1B789B001A4497F836
:1007AC002E30920030323A4413442C3B1B7814E028
:1007BC0097F82E30013387F82E3097F82E30032B14
:1007CC007FF65FAF97F82F30013387F82F3097F80B
:1007DC002F30032B7FF620AF002318463037BD4651
:1007EC00B0BD00BF0504030201000809941F0008F6
:1007FC0000080140000C01402800002080B500AF2B
:10080C004FF48071184800F079FF0346002B29D172
:10081C00142000F0E7FC4FF48071134800F06EFFD9
:10082C000346002B1ED102E0012000F0DBFC4FF44C
:10083C0080710D4800F062FF0346002BF4D00B4B87
:10084C001B78012B03D1094B00221A7002E0074BD5
:10085C0001221A70054B1B781A464FF400510448BC
:10086C0000F063FF00BF80BD00080140280000209D
:10087C000010014080B5B6B000AF00F051FC00F0A4
:10088C0083F800F0BDF800F047F9FFF7B6FCFFF76E
:10089C0083FE4FF47A7000F0A5FCFFF7BEFD002339
:1008AC00C7F8D430FFF7A2FE034687F8D33097F889
:1008BC00D3302A2B51D107F16C02D7F8D430134422
:1008CC0000221A7007F16C031846FFF70AFD4FF46B
:1008DC007A7000F087FC00F0D1FBFFF79EFDD7F893
:1008EC00D430DAB207F16C031946202000F0CCFAB0
:1008FC004FF47A7000F076FCFFF78FFD00F0BEFB32
:10090C00FFF78BFD002387F86B3007F16B03012297
:10091C001946202000F00AFB97F86B301846FFF7B9
:10092C0002FD4FF47A7000F05DFCD7F8D430DAB2E7
:10093C003B1D1946202000F0D2FAD7F8D4300133F1
:10094C00D8333B44002203F8D42C3B1D1846FFF748
:10095C00C8FC0023C7F8D430A4E797F8D330002B99
:10096C00A0D007F16C02D7F8D430134497F8D320F9
:10097C001A70D7F8D4300133C7F8D43097F8D33085
:10098C001846FFF7D0FC8DE780B590B000AF07F1AB
:10099C00180328220021184601F0BEFA3B1D002244
:1009AC001A605A609A60DA601A610223BB610123F3
:1009BC00BB621023FB6200237B6307F1180318460C
:1009CC0000F0CCFE0346002B01D000F09FF80F2363
:1009DC007B600023BB600023FB6000233B61002392
:1009EC007B613B1D0021184601F03AF90346002BB0
:1009FC0001D000F08BF800BF4037BD4680BD000031
:100A0C0080B586B000AF07F1080300221A605A6067
:100A1C009A60DA60394B9B69384A43F0040393615E
:100A2C00364B9B6903F004037B607B68334B9B69FB
:100A3C00324A43F008039361304B9B6903F008037F
:100A4C003B603B680022FC212D4800F06EFE00222A
:100A5C0040F603412B4800F068FE40F20313BB60E4
:100A6C000023FB6001233B6107F10803194624486E
:100A7C0000F0C0FCFC23BB600123FB6000233B6146
:100A8C0002237B6107F1080319461D4800F0B2FCF4
:100A9C0040F60343BB600123FB6000233B61022350
:100AAC007B6107F108031946164800F0A3FC4FF4CC
:100ABC004073BB600023FB6001233B6107F108031B
:100ACC001946104800F096FC00224FF400510E48D5
:100ADC0000F02BFE4FF40053BB600123FB6000239E
:100AEC003B6102237B6107F108031946064800F0BD
:100AFC0081FC00BF1837BD4680BD00BF001002400E
:100B0C0000080140000C01400010014080B400AF0F
:100B1C0072B600BF00BFFDE780B500AF164B1B6877
:100B2C00154A23F070631360134B1B68124A43F091
:100B3C00C0631360104B1B680F4A23F070431360A3
:100B4C000D4B1B680C4A43F0C04313600620FFF7A3
:100B5C0027FB034619460848FFF7F2FA0720FFF770
:100B6C001FFB034619460448FFF7EAFA1420FFF767
:100B7C0026FB00BF80BD00BF000C014080B500AF5C
:100B8C000720FFF70DFB034619461348FFF7D8FA69
:100B9C000620FFF705FB034619460F48FFF7D0FA6E
:100BAC001420FFF70CFB0720FFF7FAFA034619464F
:100BBC000948FFF7D3FA1420FFF701FB0620FFF7D3
:100BCC00EFFA034619460448FFF7C8FA1420FFF75A
:100BDC00F6FA00BF80BD00BF000C014080B500AF2D
:100BEC000720FFF7DDFA034619461348FFF7B6FA5C
:100BFC000620FFF7D5FA034619460F48FFF7AEFA61
:100C0C001420FFF7DCFA0620FFF7CAFA0346194650
:100C1C000948FFF795FA1420FFF7D1FA0720FFF7E0
:100C2C00BFFA034619460448FFF78AFA1420FFF767
:100C3C00C6FA00BF80BD00BF000C014080B584B077
:100C4C0000AF0346FB710023FB7333E097F90730C9
:100C5C00002B08DA0720FFF7A3FA0346194632489F
:100C6C00FFF76EFA07E00720FFF79AFA03461946DA
:100C7C002D48FFF773FA1420FFF7A1FA0620FFF7AF
:100C8C008FFA034619462848FFF75AFA1420FFF743
:100C9C0096FA0620FFF784FA034619462248FFF716
:100CAC005DFA1420FFF78BFAFB795B00FB71FB7B81
:100CBC000133FB73FB7B072BC8D90720FFF770FAB6
:100CCC00034619461848FFF73BFA1420FFF777FA4A
:100CDC000620FFF765FA034619461348FFF730FA6A
:100CEC001420FFF76CFA0720FFF75AFA034619464F
:100CFC000D48FFF741FA0346002B03D10B4B0122A1
:100D0C001A7002E0094B00221A700620FFF748FA0D
:100D1C00034619460448FFF721FA1420FFF74FFA4F
:100D2C0000BF1037BD4680BD000C014029000020DB
:100D3C0080B584B000AF0346FB710023BB73072062
:100D4C00FFF72EFA034619463648FFF7F9F9002348
:100D5C00FB732AE0BB7B5B00BB730620FFF720FA1A
:100D6C00034619462F48FFF7EBF91420FFF727FA33
:100D7C000720FFF715FA034619462A48FFF7FCF936
:100D8C000346002B03D0BB7B43F00103BB7306204F
:100D9C00FFF706FA034619462248FFF7DFF914203D
:100DAC00FFF70DFAFB7B0133FB73FB7B072BD1D9D0
:100DBC00FB79002B08D00720FFF7F2F90346194600
:100DCC001848FFF7CBF907E00720FFF7E9F90346CE
:100DDC0019461448FFF7B4F91420FFF7F0F9062070
:100DEC00FFF7DEF9034619460E48FFF7A9F9142060
:100DFC00FFF7E5F90620FFF7D3F903461946094832
:100E0C00FFF7ACF91420FFF7DAF90720FFF7C8F960
:100E1C00034619460348FFF793F9BB7B1846103776
:100E2C00BD4680BD000C014080B584B000AF0346C8
:100E3C003960FB8013467B71FFF7A0FEA020FFF703
:100E4C00FDFEFB881B0A9BB2DBB21846FFF7F6FED1
:100E5C00FB88DBB21846FFF7F1FE0023FB7309E0B9
:100E6C00FB7B3A6813441B781846FFF7E7FEFB7BC5
:100E7C000133FB73FA7B7B799A42F1D3FFF7AEFE19
:100E8C0000BF1037BD4680BD80B584B000AF0346AF
:100E9C003960FB8013467B710023FB6016E0FB6816
:100EAC003A6813441B78FB72FB7A1846FFF73BFA3F
:100EBC00FB689AB2FB8813449BB207F10B01012229
:100ECC001846FFF7B1FFFB680133FB607B79FA68CA
:100EDC009A42E4DB00BF00BF1037BD4680BD80B531
:100EEC0084B000AF03463960FB8013467B7100234E
:100EFC00FB6012E0FB689AB2FB8813449BB207F1CB
:100F0C000B010122184600F011F8FB683A681344F3
:100F1C00FA7A1A70FB680133FB607B79FA689A42A3
:100F2C00E8DB00BF00BF1037BD4680BD90B585B073
:100F3C0000AF03463960FB8013467B71FFF71EFE42
:100F4C00A020FFF77BFEFB881B0A9BB2DBB2184686
:100F5C00FFF774FEFB88DBB21846FFF76FFEFFF756
:100F6C000DFEA120FFF76AFE0023FB7318E0FA7B4D
:100F7C007B79013B9A4208D1FB7B3A68D41800205C
:100F8C00FFF7D6FE0346237007E0FB7B3A68D418C4
:100F9C000120FFF7CDFE03462370FB7B0133FB736F
:100FAC00FA7B7B799A42E2D3FFF718FE00BF143725
:100FBC00BD4690BD80B485B000AF154B9B69144AFB
:100FCC0043F001039361124B9B6903F00103BB6077
:100FDC00BB680F4BDB690E4A43F08053D3610C4B5B
:100FEC00DB6903F080537B607B680A4B5B68FB60BA
:100FFC00FB6823F0E063FB60FB6843F00073FB606D
:10100C00044AFB68536000BF1437BD4680BC704770
:10101C00001002400000014080B400AF00BFFDE7AB
:10102C0080B400AF00BFFDE780B400AF00BFFDE7A8
:10103C0080B400AF00BFFDE780B400AF00BFFDE798
:10104C0080B400AF00BFBD4680BC704780B400AF19
:10105C0000BFBD4680BC704780B400AF00BFBD462A
:10106C0080BC704780B500AF00F0A0F800BF80BD19
:10107C0080B400AF00BFBD4680BC704780B584B063
:10108C0000AF134A3B1D07CA03C31A800233120C6C
:10109C001A70FFF7C2F93B1D1846FFF722F94FF4FF
:1010AC00967000F09FF82E20FFF73DF94FF49670E4
:1010BC0000F098F82E20FFF736F94FF4967000F0F8
:1010CC0091F82E20FFF72FF900BF1037BD4680BDD9
:1010DC002C200008FFF7CCFF0B480C490C4A0023CE
:1010EC0002E0D458C4500433C4188C42F9D3094AD2
:1010FC00094C002301E013600432A242FBD300F040
:10110C0013FFFFF7B7FB7047000000200C00002016
:10111C00642000080C00002030000020FEE70000D6
:10112C0080B500AF084B1B68074A43F010031360EF
:10113C00032000F02BF90F2000F008F8FFF73AFF1E
:10114C000023184680BD00BF0020024080B582B04D
:10115C0000AF7860124B1A68124B1B7819464FF48B
:10116C007A73B3FBF1F3B2FBF3F3184600F035F9E5
:10117C000346002B01D001230EE07B680F2B0AD80D
:10118C00002279684FF0FF3000F00BF9064A7B68BB
:10119C001360002300E0012318460837BD4680BDCC
:1011AC0000000020080000200400002080B400AFE4
:1011BC00054B1B781A46054B1B681344034A1360F6
:1011CC0000BFBD4680BC7047080000202C000020EA
:1011DC0080B400AF024B1B681846BD4680BC7047FC
:1011EC002C00002080B584B000AF7860FFF7F0FFD2
:1011FC00B8607B68FB60FB68B3F1FF3F05D00A4B1E
:10120C001B781A46FB681344FB6000BFFFF7E0FF36
:10121C000246BB68D31AFA689A42F7D800BF00BFDF
:10122C001037BD4680BD00BF0800002080B485B0DB
:10123C0000AF78607B6803F00703FB600C4BDB6846
:10124C00BB60BA684FF6FF031340BB60FB681A0221
:10125C00BB68134343F0BF6343F40033BB60044AE1
:10126C00BB68D36000BF1437BD4680BC704700BF5D
:10127C0000ED00E080B400AF044BDB681B0A03F008
:10128C0007031846BD4680BC704700BF00ED00E068
:10129C0080B483B000AF03463960FB7197F9073017
:1012AC00002B0ADB3B68DAB20C4997F907301201C4
:1012BC00D2B20B4483F800230AE03B68DAB2084947
:1012CC00FB7903F00F03043B1201D2B20B441A76E4
:1012DC0000BF0C37BD4680BC704700BF00E100E08A
:1012EC0000ED00E080B489B000AFF860B9607A60BE
:1012FC00FB6803F00703FB61FB69C3F10703042BD5
:10130C0028BF0423BB61FB690433062B02D9FB699C
:10131C00033B00E000237B614FF0FF32BB6902FA14
:10132C0003F3DA43BB681A407B699A404FF0FF31F4
:10133C007B6901FA03F3D9437B680B4013431846CE
:10134C002437BD4680BC704780B582B000AF786052
:10135C007B68013BB3F1807F01D301230FE00A4A84
:10136C007B68013B53600F214FF0FF30FFF790FF7C
:10137C00054B00229A60044B07221A600023184682
:10138C000837BD4680BD00BF10E000E080B582B0DC
:10139C0000AF78607868FFF749FF00BF0837BD469B
:1013AC0080BD80B586B000AF0346B9607A60FB7330
:1013BC0000237B61FFF75EFF78617A68B968786912
:1013CC00FFF790FF024697F90F3011461846FFF7CA
:1013DC005FFF00BF1837BD4680BD80B582B000AF3F
:1013EC0078607868FFF7B0FF034618460837BD46AB
:1013FC0080BD000080B48BB000AF786039600023F2
:10140C007B6200233B6269E101227B6A02FA03F3EF
:10141C00FB613B681B68FA691340BB61BA69FB69E5
:10142C009A4240F058813B685B689A4A93425ED07E
:10143C00984A934275D8984A934258D0964A934208
:10144C006FD8964A934252D0944A934269D8944AA0
:10145C0093424CD0924A934263D8924A934246D0DC
:10146C00904A93425DD8122B2AD8122B59D801A23C
:10147C0052F823F0FB140008D5140008E7140008F8
:10148C00291500082F1500082F1500082F15000826
:10149C002F1500082F1500082F1500082F15000810
:1014AC002F1500082F1500082F1500082F15000800
:1014BC002F1500082F150008DD140008F114000882
:1014CC00794A934213D02CE03B68DB683B6229E0FD
:1014DC003B68DB6804333B6224E03B68DB68083321
:1014EC003B621FE03B68DB680C333B621AE03B68F5
:1014FC009B68002B02D104233B6213E03B689B6882
:10150C00012B05D108233B627B68FA691A6109E05B
:10151C0008233B627B68FA695A6103E000233B6253
:10152C0000E000BFBB69FF2B01D87B6801E07B6842
:10153C0004337B61BB69FF2B02D87B6A9B0002E002
:10154C007B6A083B9B003B617B691A680F213B69F6
:10155C0001FA03F3DB431A40396A3B6901FA03F3DE
:10156C001A437B691A603B685B6803F08053002B5D
:10157C0000F0B1804D4B9B694C4A43F001039361E1
:10158C004A4B9B6903F00103BB60BB68484A7B6A0A
:10159C009B08023352F82330FB607B6A03F0030391
:1015AC009B000F2202FA03F3DB43FA681340FB6043
:1015BC007B68404A934213D07B683F4A93420DD0DC
:1015CC007B683E4A934207D07B683D4A934201D1E7
:1015DC00032306E0042304E0022302E0012300E0DD
:1015EC0000237A6A02F0030292009340FA681343D4
:1015FC00FB602F497B6A9B080233FA6841F8232071
:10160C003B685B6803F48013002B06D02D4B9A6863
:10161C002C49BB6913438B6006E02A4B9A68BB6963
:10162C00DB43284913408B603B685B6803F4001371
:10163C00002B06D0234BDA682249BB691343CB60DD
:10164C0006E0204BDA68BB69DB431E491340CB60D4
:10165C003B685B6803F40033002B06D0194B5A68C7
:10166C001849BB6913434B6006E0164B5A68BB69BB
:10167C00DB43144913404B603B685B6803F48033D5
:10168C00002B21D00F4B1A680E49BB6913430B601A
:10169C0021E000BF000032100000311000002210C9
:1016AC000000211000001210000011100010024068
:1016BC000000014000080140000C014000100140F6
:1016CC0000140140000401400B4B1A68BB69DB435A
:1016DC00094913400B607B6A01337B623B681A68D3
:1016EC007B6A22FA03F3002B7FF48EAE00BF00BF9F
:1016FC002C37BD4680BC70470004014080B485B0D7
:10170C0000AF78600B467B807B689A687B881340BF
:10171C00002B02D00123FB7301E00023FB73FB7B46
:10172C0018461437BD4680BC704780B483B000AFF8
:10173C0078600B467B8013467B707B78002B03D044
:10174C007A887B681A6103E07B881A047B681A61CB
:10175C0000BF0C37BD4680BC7047000080B586B01A
:10176C0000AF78607B68002B01D1012372E27B68AB
:10177C001B6803F00103002B00F08780924B5B6821
:10178C0003F00C03042B0CD08F4B5B6803F00C03A1
:10179C00082B12D18C4B5B6803F48033B3F5803F7C
:1017AC000BD1894B1B6803F40033002B6CD07B6886
:1017BC005B68002B68D101234CE27B685B68B3F556
:1017CC00803F06D1804B1B687F4A43F48033136003
:1017DC002EE07B685B68002B0CD17B4B1B687A4A34
:1017EC0023F480331360784B1B68774A23F48023EF
:1017FC0013601DE07B685B68B3F5A02F0CD1724BB6
:10180C001B68714A43F4802313606F4B1B686E4A4C
:10181C0043F4803313600BE06B4B1B686A4A23F470
:10182C0080331360684B1B68674A23F48023136072
:10183C007B685B68002B13D0FFF7CAFC386108E0AB
:10184C00FFF7C6FC02463B69D31A642B01D903236C
:10185C0000E25D4B1B6803F40033002BF0D014E066
:10186C00FFF7B6FC386108E0FFF7B2FC02463B69B3
:10187C00D31A642B01D90323ECE1534B1B6803F4FB
:10188C000033002BF0D100E000BF7B681B6803F035
:10189C000203002B63D04C4B5B6803F00C03002B52
:1018AC000BD0494B5B6803F00C03082B1CD1464B47
:1018BC005B6803F48033002B16D1434B1B6803F099
:1018CC000203002B05D07B681B69012B01D001237F
:1018DC00C0E13D4B1B6823F0F8027B685B69DB00C1
:1018EC00394913430B603AE07B681B69002B20D00D
:1018FC00364B01221A60FFF76BFC386108E0FFF7EA
:10190C0067FC02463B69D31A022B01D90323A1E1E0
:10191C002D4B1B6803F00203002BF0D02A4B1B68E5
:10192C0023F0F8027B685B69DB00274913430B60EB
:10193C0015E0264B00221A60FFF74AFC386108E0DC
:10194C00FFF746FC02463B69D31A022B01D903234D
:10195C0080E11D4B1B6803F00203002BF0D17B6868
:10196C001B6803F00803002B3AD07B689B69002BA3
:10197C0019D0174B01221A60FFF72AFC386108E0D6
:10198C00FFF726FC02463B69D31A022B01D903232D
:10199C0060E10D4B5B6A03F00203002BF0D00120D9
:1019AC0000F09CFA1CE00A4B00221A60FFF710FCB6
:1019BC0038610FE0FFF70CFC02463B69D31A022B8F
:1019CC0008D9032346E100BF001002400000424248
:1019DC0080044242924B5B6A03F00203002BE9D174
:1019EC007B681B6803F00403002B00F0A680002327
:1019FC00FB758B4BDB6903F08053002B0DD1884BAF
:101A0C00DB69874A43F08053D361854BDB6903F074
:101A1C008053BB60BB680123FB75824B1B6803F4CE
:101A2C008073002B18D17F4B1B687E4A43F4807364
:101A3C001360FFF7CDFB386108E0FFF7C9FB0246E6
:101A4C003B69D31A642B01D9032303E1754B1B6843
:101A5C0003F48073002BF0D07B68DB68012B06D17C
:101A6C006F4B1B6A6E4A43F0010313622DE07B68D7
:101A7C00DB68002B0CD16A4B1B6A694A23F001030B
:101A8C001362674B1B6A664A23F0040313621CE063
:101A9C007B68DB68052B0CD1614B1B6A604A43F0F9
:101AAC00040313625E4B1B6A5D4A43F0010313622D
:101ABC000BE05B4B1B6A5A4A23F001031362584B31
:101ACC001B6A574A23F0040313627B68DB68002B04
:101ADC0015D0FFF77DFB38610AE0FFF779FB024672
:101AEC003B69D31A41F28832934201D90323B1E006
:101AFC004B4B1B6A03F00203002BEED014E0FFF7F4
:101B0C0067FB38610AE0FFF763FB02463B69D31AB7
:101B1C0041F28832934201D903239BE0404B1B6A6C
:101B2C0003F00203002BEED1FB7D012B05D13C4BC6
:101B3C00DB693B4A23F08053D3617B68DB69002B64
:101B4C0000F08780364B5B6803F00C03082B61D0E8
:101B5C007B68DB69022B46D1334B00221A60FFF7FE
:101B6C0037FB386108E0FFF733FB02463B69D31AB9
:101B7C00022B01D903236DE0294B1B6803F0007382
:101B8C00002BF0D17B681B6AB3F5803F08D1244B46
:101B9C005B6823F400327B689B68214913434B60DC
:101BAC001F4B5B6823F474127B68196A7B685B6A51
:101BBC000B431B4913434B601B4B01221A60FFF76D
:101BCC0007FB386108E0FFF703FB02463B69D31AB9
:101BDC00022B01D903233DE0114B1B6803F000736A
:101BEC00002BF0D035E0104B00221A60FFF7F0FA12
:101BFC00386108E0FFF7ECFA02463B69D31A022B76
:101C0C0001D9032326E0064B1B6803F00073002B5D
:101C1C00F0D11EE07B68DB69012B07D1012319E0B1
:101C2C000010024000700040600042420B4B5B68A9
:101C3C00FB60FB6803F480327B681B6A9A4206D116
:101C4C00FB6803F470127B685B6A9A4201D0012333
:101C5C0000E0002318461837BD4680BD0010024036
:101C6C0080B584B000AF786039607B68002B01D1FF
:101C7C000123D0E06A4B1B6803F007033A689A42D1
:101C8C0010D9674B1B6823F0070265493B68134367
:101C9C000B60634B1B6803F007033A689A4201D050
:101CAC000123B8E07B681B6803F00203002B20D0F3
:101CBC007B681B6803F00403002B05D0594B5B6851
:101CCC00584A43F4E06353607B681B6803F00803D5
:101CDC00002B05D0534B5B68524A43F4605353605E
:101CEC00504B5B6823F0F0027B689B684D491343B3
:101CFC004B607B681B6803F00103002B40D07B68B2
:101D0C005B68012B07D1474B1B6803F40033002B96
:101D1C0015D101237FE07B685B68022B07D1414B17
:101D2C001B6803F00073002B09D1012373E03D4BBA
:101D3C001B6803F00203002B01D101236BE0394B2C
:101D4C005B6823F003027B685B68364913434B6086
:101D5C00FFF73EFAF8600AE0FFF73AFA0246FB6832
:101D6C00D31A41F28832934201D9032353E02D4B0D
:101D7C005B6803F00C027B685B689B009A42EBD1BA
:101D8C00274B1B6803F007033A689A4210D2244B86
:101D9C001B6823F0070222493B6813430B60204B5E
:101DAC001B6803F007033A689A4201D0012332E022
:101DBC007B681B6803F00403002B08D0194B5B688D
:101DCC0023F4E0627B68DB68164913434B607B6845
:101DDC001B6803F00803002B09D0124B5B6823F43B
:101DEC0060527B681B69DB000E4913434B6000F0AB
:101DFC0021F802460B4B5B681B0903F00F030A49E1
:101E0C00CB5C22FA03F3094A1360094B1B68184692
:101E1C00FFF79CF9002318461037BD4680BD00BF64
:101E2C000020024000100240382000080000002072
:101E3C000400002080B487B000AF0023FB600023B7
:101E4C00BB6000237B6100237B6000233B611E4B46
:101E5C005B68FB60FB6803F00C03042B02D0082BBF
:101E6C0003D027E0194B3B6127E0FB689B0C03F088
:101E7C000F03174AD35C7B60FB6803F48033002BA1
:101E8C0010D0114B5B685B0C03F00103114AD35C5F
:101E9C00BB607B680D4A03FB02F2BB68B2FBF3F339
:101EAC007B6104E07B680C4A02FB03F37B617B697A
:101EBC003B6102E0054B3B6100BF3B6918461C3798
:101ECC00BD4680BC704700BF0010024000127A0073
:101EDC00482000085820000800093D0080B485B057
:101EEC0000AF78600A4B1B680A4AA2FB03235B0A0B
:101EFC007A6802FB03F3FB6000BFFB685A1EFA60B2
:101F0C00002BF9D100BF00BF1437BD4680BC704711
:101F1C0000000020D34D621003460244934200D1CE
:101F2C00704703F8011BF9E770B500260C4D0D4CFA
:101F3C00641BA410A64209D100F01AF800260A4D21
:101F4C000A4C641BA410A64205D170BD55F8043B85
:101F5C0098470136EEE755F8043B98470136F2E70F
:101F6C005C2000085C2000085C2000086020000851
:101F7C00F8B500BFF8BC08BC9E467047F8B500BF6A
:081F8C00F8BC08BC9E4670473A
:101F9400414243444546472D48494A2F4B4C4D2A1C
:101FA4004E4F5051525354205556572F58595A2A70
:101FB40041202D20494E49434941520042202D20C1
:101FC400494E49434941520054454E54415449569F
:101FD400413A202020205830000000005656565622
:101FE40056565656565656565656565600000000E5
:101FF4005620564F43452047414E484F55212056C1
:1020040000000000585858585858585858585858AC
:10201400585858580000000058202147414D452089
:102024004F56455221205800636172726567616E94
:10203400646F0000000000000000000001020304BF
:102044000607080902030405060708090A0B0C0D14
:082054000E0F10100102000044
:04205C003101000846
:042060000D01000866
:0C20640000127A001000000001000000D3
:04000005080010E1FE
:00000001FF
